{
  "_format": "hh-sol-artifact-1",
  "contractName": "QKCToken",
  "sourceName": "contracts/contract.sol",
  "abi": [
    {
      "inputs": [
        {
          "internalType": "uint256",
          "name": "initialSupply",
          "type": "uint256"
        }
      ],
      "stateMutability": "nonpayable",
      "type": "constructor"
    },
    {
      "anonymous": false,
      "inputs": [
        {
          "indexed": true,
          "internalType": "address",
          "name": "owner",
          "type": "address"
        },
        {
          "indexed": true,
          "internalType": "address",
          "name": "spender",
          "type": "address"
        },
        {
          "indexed": false,
          "internalType": "uint256",
          "name": "value",
          "type": "uint256"
        }
      ],
      "name": "Approval",
      "type": "event"
    },
    {
      "anonymous": false,
      "inputs": [
        {
          "indexed": false,
          "internalType": "address",
          "name": "owner",
          "type": "address"
        },
        {
          "indexed": true,
          "internalType": "address",
          "name": "user",
          "type": "address"
        },
        {
          "indexed": false,
          "internalType": "uint256",
          "name": "amount",
          "type": "uint256"
        }
      ],
      "name": "Claim",
      "type": "event"
    },
    {
      "anonymous": false,
      "inputs": [
        {
          "indexed": true,
          "internalType": "address",
          "name": "previousOwner",
          "type": "address"
        },
        {
          "indexed": true,
          "internalType": "address",
          "name": "newOwner",
          "type": "address"
        }
      ],
      "name": "OwnershipTransferred",
      "type": "event"
    },
    {
      "anonymous": false,
      "inputs": [
        {
          "indexed": true,
          "internalType": "address",
          "name": "from",
          "type": "address"
        },
        {
          "indexed": true,
          "internalType": "address",
          "name": "to",
          "type": "address"
        },
        {
          "indexed": false,
          "internalType": "uint256",
          "name": "value",
          "type": "uint256"
        }
      ],
      "name": "Transfer",
      "type": "event"
    },
    {
      "inputs": [
        {
          "internalType": "address",
          "name": "owner",
          "type": "address"
        },
        {
          "internalType": "address",
          "name": "spender",
          "type": "address"
        }
      ],
      "name": "allowance",
      "outputs": [
        {
          "internalType": "uint256",
          "name": "",
          "type": "uint256"
        }
      ],
      "stateMutability": "view",
      "type": "function"
    },
    {
      "inputs": [
        {
          "internalType": "address",
          "name": "spender",
          "type": "address"
        },
        {
          "internalType": "uint256",
          "name": "amount",
          "type": "uint256"
        }
      ],
      "name": "approve",
      "outputs": [
        {
          "internalType": "bool",
          "name": "",
          "type": "bool"
        }
      ],
      "stateMutability": "nonpayable",
      "type": "function"
    },
    {
      "inputs": [
        {
          "internalType": "address",
          "name": "account",
          "type": "address"
        }
      ],
      "name": "balanceOf",
      "outputs": [
        {
          "internalType": "uint256",
          "name": "",
          "type": "uint256"
        }
      ],
      "stateMutability": "view",
      "type": "function"
    },
    {
      "inputs": [
        {
          "internalType": "uint256",
          "name": "amount",
          "type": "uint256"
        }
      ],
      "name": "claimToken",
      "outputs": [],
      "stateMutability": "nonpayable",
      "type": "function"
    },
    {
      "inputs": [],
      "name": "decimals",
      "outputs": [
        {
          "internalType": "uint8",
          "name": "",
          "type": "uint8"
        }
      ],
      "stateMutability": "view",
      "type": "function"
    },
    {
      "inputs": [
        {
          "internalType": "address",
          "name": "spender",
          "type": "address"
        },
        {
          "internalType": "uint256",
          "name": "subtractedValue",
          "type": "uint256"
        }
      ],
      "name": "decreaseAllowance",
      "outputs": [
        {
          "internalType": "bool",
          "name": "",
          "type": "bool"
        }
      ],
      "stateMutability": "nonpayable",
      "type": "function"
    },
    {
      "inputs": [
        {
          "internalType": "address",
          "name": "spender",
          "type": "address"
        },
        {
          "internalType": "uint256",
          "name": "addedValue",
          "type": "uint256"
        }
      ],
      "name": "increaseAllowance",
      "outputs": [
        {
          "internalType": "bool",
          "name": "",
          "type": "bool"
        }
      ],
      "stateMutability": "nonpayable",
      "type": "function"
    },
    {
      "inputs": [],
      "name": "name",
      "outputs": [
        {
          "internalType": "string",
          "name": "",
          "type": "string"
        }
      ],
      "stateMutability": "view",
      "type": "function"
    },
    {
      "inputs": [],
      "name": "owner",
      "outputs": [
        {
          "internalType": "address",
          "name": "",
          "type": "address"
        }
      ],
      "stateMutability": "view",
      "type": "function"
    },
    {
      "inputs": [],
      "name": "renounceOwnership",
      "outputs": [],
      "stateMutability": "nonpayable",
      "type": "function"
    },
    {
      "inputs": [],
      "name": "symbol",
      "outputs": [
        {
          "internalType": "string",
          "name": "",
          "type": "string"
        }
      ],
      "stateMutability": "view",
      "type": "function"
    },
    {
      "inputs": [],
      "name": "totalSupply",
      "outputs": [
        {
          "internalType": "uint256",
          "name": "",
          "type": "uint256"
        }
      ],
      "stateMutability": "view",
      "type": "function"
    },
    {
      "inputs": [
        {
          "internalType": "address",
          "name": "to",
          "type": "address"
        },
        {
          "internalType": "uint256",
          "name": "amount",
          "type": "uint256"
        }
      ],
      "name": "transfer",
      "outputs": [
        {
          "internalType": "bool",
          "name": "",
          "type": "bool"
        }
      ],
      "stateMutability": "nonpayable",
      "type": "function"
    },
    {
      "inputs": [
        {
          "internalType": "address",
          "name": "from",
          "type": "address"
        },
        {
          "internalType": "address",
          "name": "to",
          "type": "address"
        },
        {
          "internalType": "uint256",
          "name": "amount",
          "type": "uint256"
        }
      ],
      "name": "transferFrom",
      "outputs": [
        {
          "internalType": "bool",
          "name": "",
          "type": "bool"
        }
      ],
      "stateMutability": "nonpayable",
      "type": "function"
    },
    {
      "inputs": [
        {
          "internalType": "address",
          "name": "newOwner",
          "type": "address"
        }
      ],
      "name": "transferOwnership",
      "outputs": [],
      "stateMutability": "nonpayable",
      "type": "function"
    }
  ],
  "bytecode": "0x60806040523480156200001157600080fd5b5060405162001021380380620010218339810160408190526200003491620002c4565b6040518060400160405280600781526020016622bb37b72232bb60c91b8152506040518060400160405280600381526020016211559160ea1b8152508160039080519060200190620000889291906200021e565b5080516200009e9060049060208401906200021e565b505050620000bb620000b5620000e160201b60201c565b620000e5565b620000da33620000d483670de0b6b3a764000062000338565b62000137565b50620003ad565b3390565b600580546001600160a01b038381166001600160a01b0319831681179093556040519116919082907f8be0079c531659141344cd1fd0a4f28419497f9722a3daafe3b4186f6b6457e090600090a35050565b6001600160a01b038216620001695760405162461bcd60e51b81526004016200016090620002dd565b60405180910390fd5b620001776000838362000219565b80600260008282546200018b91906200031d565b90915550506001600160a01b03821660009081526020819052604081208054839290620001ba9084906200031d565b90915550506040516001600160a01b038316906000907fddf252ad1be2c89b69c2b068fc378daa952ba7f163c4a11628f55a4df523b3ef90620001ff90859062000314565b60405180910390a3620002156000838362000219565b5050565b505050565b8280546200022c906200035a565b90600052602060002090601f0160209004810192826200025057600085556200029b565b82601f106200026b57805160ff19168380011785556200029b565b828001600101855582156200029b579182015b828111156200029b5782518255916020019190600101906200027e565b50620002a9929150620002ad565b5090565b5b80821115620002a95760008155600101620002ae565b600060208284031215620002d6578081fd5b5051919050565b6020808252601f908201527f45524332303a206d696e7420746f20746865207a65726f206164647265737300604082015260600190565b90815260200190565b6000821982111562000333576200033362000397565b500190565b600081600019048311821515161562000355576200035562000397565b500290565b6002810460018216806200036f57607f821691505b602082108114156200039157634e487b7160e01b600052602260045260246000fd5b50919050565b634e487b7160e01b600052601160045260246000fd5b610c6480620003bd6000396000f3fe608060405234801561001057600080fd5b50600436106100f55760003560e01c8063715018a611610097578063a9059cbb11610066578063a9059cbb146101d5578063a9e7c2e5146101e8578063dd62ed3e146101fb578063f2fde38b1461020e576100f5565b8063715018a61461019b5780638da5cb5b146101a557806395d89b41146101ba578063a457c2d7146101c2576100f5565b806323b872dd116100d357806323b872dd1461014d578063313ce56714610160578063395093511461017557806370a0823114610188576100f5565b806306fdde03146100fa578063095ea7b31461011857806318160ddd14610138575b600080fd5b610102610221565b60405161010f91906108f1565b60405180910390f35b61012b610126366004610878565b6102b3565b60405161010f91906108e6565b6101406102d5565b60405161010f9190610b8f565b61012b61015b36600461083d565b6102db565b610168610309565b60405161010f9190610b98565b61012b610183366004610878565b61030e565b6101406101963660046107ea565b61033a565b6101a3610359565b005b6101ad6103ad565b60405161010f91906108b9565b6101026103bc565b61012b6101d0366004610878565b6103cb565b61012b6101e3366004610878565b610413565b6101a36101f63660046108a1565b61042b565b61014061020936600461080b565b6104ba565b6101a361021c3660046107ea565b6104e5565b60606003805461023090610bdd565b80601f016020809104026020016040519081016040528092919081815260200182805461025c90610bdd565b80156102a95780601f1061027e576101008083540402835291602001916102a9565b820191906000526020600020905b81548152906001019060200180831161028c57829003601f168201915b5050505050905090565b6000806102be610556565b90506102cb81858561055a565b5060019392505050565b60025490565b6000806102e6610556565b90506102f385828561060e565b6102fe858585610658565b506001949350505050565b601290565b600080610319610556565b90506102cb81858561032b85896104ba565b6103359190610ba6565b61055a565b6001600160a01b0381166000908152602081905260409020545b919050565b610361610556565b6001600160a01b03166103726103ad565b6001600160a01b0316146103a15760405162461bcd60e51b815260040161039890610a8c565b60405180910390fd5b6103ab600061077c565b565b6005546001600160a01b031690565b60606004805461023090610bdd565b6000806103d6610556565b905060006103e482866104ba565b9050838110156104065760405162461bcd60e51b815260040161039890610b4a565b6102fe828686840361055a565b60008061041e610556565b90506102cb818585610658565b6000610435610556565b905060006104416103ad565b905061045a818361033586670de0b6b3a7640000610bbe565b610471818361015b86670de0b6b3a7640000610bbe565b50816001600160a01b03167f70eb43c4a8ae8c40502dcf22436c509c28d6ff421cf07c491be56984bd98706882856040516104ad9291906108cd565b60405180910390a2505050565b6001600160a01b03918216600090815260016020908152604080832093909416825291909152205490565b6104ed610556565b6001600160a01b03166104fe6103ad565b6001600160a01b0316146105245760405162461bcd60e51b815260040161039890610a8c565b6001600160a01b03811661054a5760405162461bcd60e51b815260040161039890610987565b6105538161077c565b50565b3390565b6001600160a01b0383166105805760405162461bcd60e51b815260040161039890610b06565b6001600160a01b0382166105a65760405162461bcd60e51b8152600401610398906109cd565b6001600160a01b0380841660008181526001602090815260408083209487168084529490915290819020849055517f8c5be1e5ebec7d5bd14f71427d1e84f3dd0314c0f7b2291e5b200ac8c7c3b92590610601908590610b8f565b60405180910390a3505050565b600061061a84846104ba565b9050600019811461065257818110156106455760405162461bcd60e51b815260040161039890610a0f565b610652848484840361055a565b50505050565b6001600160a01b03831661067e5760405162461bcd60e51b815260040161039890610ac1565b6001600160a01b0382166106a45760405162461bcd60e51b815260040161039890610944565b6106af8383836107ce565b6001600160a01b038316600090815260208190526040902054818110156106e85760405162461bcd60e51b815260040161039890610a46565b6001600160a01b0380851660009081526020819052604080822085850390559185168152908120805484929061071f908490610ba6565b92505081905550826001600160a01b0316846001600160a01b03167fddf252ad1be2c89b69c2b068fc378daa952ba7f163c4a11628f55a4df523b3ef846040516107699190610b8f565b60405180910390a36106528484846107ce565b600580546001600160a01b038381166001600160a01b0319831681179093556040519116919082907f8be0079c531659141344cd1fd0a4f28419497f9722a3daafe3b4186f6b6457e090600090a35050565b505050565b80356001600160a01b038116811461035457600080fd5b6000602082840312156107fb578081fd5b610804826107d3565b9392505050565b6000806040838503121561081d578081fd5b610826836107d3565b9150610834602084016107d3565b90509250929050565b600080600060608486031215610851578081fd5b61085a846107d3565b9250610868602085016107d3565b9150604084013590509250925092565b6000806040838503121561088a578182fd5b610893836107d3565b946020939093013593505050565b6000602082840312156108b2578081fd5b5035919050565b6001600160a01b0391909116815260200190565b6001600160a01b03929092168252602082015260400190565b901515815260200190565b6000602080835283518082850152825b8181101561091d57858101830151858201604001528201610901565b8181111561092e5783604083870101525b50601f01601f1916929092016040019392505050565b60208082526023908201527f45524332303a207472616e7366657220746f20746865207a65726f206164647260408201526265737360e81b606082015260800190565b60208082526026908201527f4f776e61626c653a206e6577206f776e657220697320746865207a65726f206160408201526564647265737360d01b606082015260800190565b60208082526022908201527f45524332303a20617070726f766520746f20746865207a65726f206164647265604082015261737360f01b606082015260800190565b6020808252601d908201527f45524332303a20696e73756666696369656e7420616c6c6f77616e6365000000604082015260600190565b60208082526026908201527f45524332303a207472616e7366657220616d6f756e7420657863656564732062604082015265616c616e636560d01b606082015260800190565b6020808252818101527f4f776e61626c653a2063616c6c6572206973206e6f7420746865206f776e6572604082015260600190565b60208082526025908201527f45524332303a207472616e736665722066726f6d20746865207a65726f206164604082015264647265737360d81b606082015260800190565b60208082526024908201527f45524332303a20617070726f76652066726f6d20746865207a65726f206164646040820152637265737360e01b606082015260800190565b60208082526025908201527f45524332303a2064656372656173656420616c6c6f77616e63652062656c6f77604082015264207a65726f60d81b606082015260800190565b90815260200190565b60ff91909116815260200190565b60008219821115610bb957610bb9610c18565b500190565b6000816000190483118215151615610bd857610bd8610c18565b500290565b600281046001821680610bf157607f821691505b60208210811415610c1257634e487b7160e01b600052602260045260246000fd5b50919050565b634e487b7160e01b600052601160045260246000fdfea26469706673582212202ceb586a6d87e371dada32f94d2c13cab5a353a23a0c3c1736dd0e2b8fe33f6b64736f6c63430008000033",
  "linkReferences": {},
  "deployedLinkReferences": {}
}