{
  "_format": "hh-sol-artifact-1",
  "contractName": "QKCToken",
  "sourceName": "contracts/Token.sol",
  "abi": [
    {
      "inputs": [
        {
          "internalType": "uint256",
          "name": "totalSuply",
          "type": "uint256"
        }
      ],
      "stateMutability": "nonpayable",
      "type": "constructor"
    },
    {
      "anonymous": false,
      "inputs": [
        {
          "indexed": true,
          "internalType": "address",
          "name": "owner",
          "type": "address"
        },
        {
          "indexed": true,
          "internalType": "address",
          "name": "spender",
          "type": "address"
        },
        {
          "indexed": false,
          "internalType": "uint256",
          "name": "value",
          "type": "uint256"
        }
      ],
      "name": "Approval",
      "type": "event"
    },
    {
      "anonymous": false,
      "inputs": [
        {
          "indexed": false,
          "internalType": "address",
          "name": "owner",
          "type": "address"
        },
        {
          "indexed": true,
          "internalType": "address",
          "name": "user",
          "type": "address"
        },
        {
          "indexed": false,
          "internalType": "uint256",
          "name": "amount",
          "type": "uint256"
        }
      ],
      "name": "Claim",
      "type": "event"
    },
    {
      "anonymous": false,
      "inputs": [
        {
          "indexed": true,
          "internalType": "address",
          "name": "previousOwner",
          "type": "address"
        },
        {
          "indexed": true,
          "internalType": "address",
          "name": "newOwner",
          "type": "address"
        }
      ],
      "name": "OwnershipTransferred",
      "type": "event"
    },
    {
      "anonymous": false,
      "inputs": [
        {
          "indexed": true,
          "internalType": "address",
          "name": "from",
          "type": "address"
        },
        {
          "indexed": true,
          "internalType": "address",
          "name": "to",
          "type": "address"
        },
        {
          "indexed": false,
          "internalType": "uint256",
          "name": "value",
          "type": "uint256"
        }
      ],
      "name": "Transfer",
      "type": "event"
    },
    {
      "inputs": [
        {
          "internalType": "address",
          "name": "owner",
          "type": "address"
        },
        {
          "internalType": "address",
          "name": "spender",
          "type": "address"
        }
      ],
      "name": "allowance",
      "outputs": [
        {
          "internalType": "uint256",
          "name": "",
          "type": "uint256"
        }
      ],
      "stateMutability": "view",
      "type": "function"
    },
    {
      "inputs": [
        {
          "internalType": "address",
          "name": "spender",
          "type": "address"
        },
        {
          "internalType": "uint256",
          "name": "amount",
          "type": "uint256"
        }
      ],
      "name": "approve",
      "outputs": [
        {
          "internalType": "bool",
          "name": "",
          "type": "bool"
        }
      ],
      "stateMutability": "nonpayable",
      "type": "function"
    },
    {
      "inputs": [
        {
          "internalType": "address",
          "name": "account",
          "type": "address"
        }
      ],
      "name": "balanceOf",
      "outputs": [
        {
          "internalType": "uint256",
          "name": "",
          "type": "uint256"
        }
      ],
      "stateMutability": "view",
      "type": "function"
    },
    {
      "inputs": [
        {
          "internalType": "uint256",
          "name": "amount",
          "type": "uint256"
        }
      ],
      "name": "claimToken",
      "outputs": [],
      "stateMutability": "nonpayable",
      "type": "function"
    },
    {
      "inputs": [],
      "name": "decimals",
      "outputs": [
        {
          "internalType": "uint8",
          "name": "",
          "type": "uint8"
        }
      ],
      "stateMutability": "view",
      "type": "function"
    },
    {
      "inputs": [
        {
          "internalType": "address",
          "name": "spender",
          "type": "address"
        },
        {
          "internalType": "uint256",
          "name": "subtractedValue",
          "type": "uint256"
        }
      ],
      "name": "decreaseAllowance",
      "outputs": [
        {
          "internalType": "bool",
          "name": "",
          "type": "bool"
        }
      ],
      "stateMutability": "nonpayable",
      "type": "function"
    },
    {
      "inputs": [
        {
          "internalType": "address",
          "name": "spender",
          "type": "address"
        },
        {
          "internalType": "uint256",
          "name": "addedValue",
          "type": "uint256"
        }
      ],
      "name": "increaseAllowance",
      "outputs": [
        {
          "internalType": "bool",
          "name": "",
          "type": "bool"
        }
      ],
      "stateMutability": "nonpayable",
      "type": "function"
    },
    {
      "inputs": [],
      "name": "name",
      "outputs": [
        {
          "internalType": "string",
          "name": "",
          "type": "string"
        }
      ],
      "stateMutability": "view",
      "type": "function"
    },
    {
      "inputs": [],
      "name": "owner",
      "outputs": [
        {
          "internalType": "address",
          "name": "",
          "type": "address"
        }
      ],
      "stateMutability": "view",
      "type": "function"
    },
    {
      "inputs": [],
      "name": "renounceOwnership",
      "outputs": [],
      "stateMutability": "nonpayable",
      "type": "function"
    },
    {
      "inputs": [],
      "name": "symbol",
      "outputs": [
        {
          "internalType": "string",
          "name": "",
          "type": "string"
        }
      ],
      "stateMutability": "view",
      "type": "function"
    },
    {
      "inputs": [],
      "name": "totalSupply",
      "outputs": [
        {
          "internalType": "uint256",
          "name": "",
          "type": "uint256"
        }
      ],
      "stateMutability": "view",
      "type": "function"
    },
    {
      "inputs": [
        {
          "internalType": "address",
          "name": "to",
          "type": "address"
        },
        {
          "internalType": "uint256",
          "name": "amount",
          "type": "uint256"
        }
      ],
      "name": "transfer",
      "outputs": [
        {
          "internalType": "bool",
          "name": "",
          "type": "bool"
        }
      ],
      "stateMutability": "nonpayable",
      "type": "function"
    },
    {
      "inputs": [
        {
          "internalType": "address",
          "name": "from",
          "type": "address"
        },
        {
          "internalType": "address",
          "name": "to",
          "type": "address"
        },
        {
          "internalType": "uint256",
          "name": "amount",
          "type": "uint256"
        }
      ],
      "name": "transferFrom",
      "outputs": [
        {
          "internalType": "bool",
          "name": "",
          "type": "bool"
        }
      ],
      "stateMutability": "nonpayable",
      "type": "function"
    },
    {
      "inputs": [
        {
          "internalType": "address",
          "name": "newOwner",
          "type": "address"
        }
      ],
      "name": "transferOwnership",
      "outputs": [],
      "stateMutability": "nonpayable",
      "type": "function"
    }
  ],
  "bytecode": "0x60806040523480156200001157600080fd5b5060405162001e1338038062001e1383398181016040528101906200003791906200043d565b6040518060400160405280600781526020017f45766f6e446576000000000000000000000000000000000000000000000000008152506040518060400160405280600381526020017f45564400000000000000000000000000000000000000000000000000000000008152508160039080519060200190620000bb92919062000376565b508060049080519060200190620000d492919062000376565b505050620000f7620000eb6200012560201b60201c565b6200012d60201b60201c565b6200011e33670de0b6b3a76400008362000112919062000569565b620001f360201b60201c565b5062000682565b600033905090565b6000600560009054906101000a900473ffffffffffffffffffffffffffffffffffffffff16905081600560006101000a81548173ffffffffffffffffffffffffffffffffffffffff021916908373ffffffffffffffffffffffffffffffffffffffff1602179055508173ffffffffffffffffffffffffffffffffffffffff168173ffffffffffffffffffffffffffffffffffffffff167f8be0079c531659141344cd1fd0a4f28419497f9722a3daafe3b4186f6b6457e060405160405180910390a35050565b600073ffffffffffffffffffffffffffffffffffffffff168273ffffffffffffffffffffffffffffffffffffffff16141562000266576040517f08c379a00000000000000000000000000000000000000000000000000000000081526004016200025d90620004bc565b60405180910390fd5b6200027a600083836200036c60201b60201c565b80600260008282546200028e91906200050c565b92505081905550806000808473ffffffffffffffffffffffffffffffffffffffff1673ffffffffffffffffffffffffffffffffffffffff1681526020019081526020016000206000828254620002e591906200050c565b925050819055508173ffffffffffffffffffffffffffffffffffffffff16600073ffffffffffffffffffffffffffffffffffffffff167fddf252ad1be2c89b69c2b068fc378daa952ba7f163c4a11628f55a4df523b3ef836040516200034c9190620004de565b60405180910390a362000368600083836200037160201b60201c565b5050565b505050565b505050565b8280546200038490620005d4565b90600052602060002090601f016020900481019282620003a85760008555620003f4565b82601f10620003c357805160ff1916838001178555620003f4565b82800160010185558215620003f4579182015b82811115620003f3578251825591602001919060010190620003d6565b5b50905062000403919062000407565b5090565b5b808211156200042257600081600090555060010162000408565b5090565b600081519050620004378162000668565b92915050565b6000602082840312156200045057600080fd5b6000620004608482850162000426565b91505092915050565b600062000478601f83620004fb565b91507f45524332303a206d696e7420746f20746865207a65726f2061646472657373006000830152602082019050919050565b620004b681620005ca565b82525050565b60006020820190508181036000830152620004d78162000469565b9050919050565b6000602082019050620004f56000830184620004ab565b92915050565b600082825260208201905092915050565b60006200051982620005ca565b91506200052683620005ca565b9250827fffffffffffffffffffffffffffffffffffffffffffffffffffffffffffffffff038211156200055e576200055d6200060a565b5b828201905092915050565b60006200057682620005ca565b91506200058383620005ca565b9250817fffffffffffffffffffffffffffffffffffffffffffffffffffffffffffffffff0483118215151615620005bf57620005be6200060a565b5b828202905092915050565b6000819050919050565b60006002820490506001821680620005ed57607f821691505b6020821081141562000604576200060362000639565b5b50919050565b7f4e487b7100000000000000000000000000000000000000000000000000000000600052601160045260246000fd5b7f4e487b7100000000000000000000000000000000000000000000000000000000600052602260045260246000fd5b6200067381620005ca565b81146200067f57600080fd5b50565b61178180620006926000396000f3fe608060405234801561001057600080fd5b50600436106100f55760003560e01c8063715018a611610097578063a9059cbb11610066578063a9059cbb1461028a578063a9e7c2e5146102ba578063dd62ed3e146102d6578063f2fde38b14610306576100f5565b8063715018a6146102145780638da5cb5b1461021e57806395d89b411461023c578063a457c2d71461025a576100f5565b806323b872dd116100d357806323b872dd14610166578063313ce5671461019657806339509351146101b457806370a08231146101e4576100f5565b806306fdde03146100fa578063095ea7b31461011857806318160ddd14610148575b600080fd5b610102610322565b60405161010f91906113b0565b60405180910390f35b610132600480360381019061012d9190610f2d565b6103b4565b60405161013f9190611395565b60405180910390f35b6101506103d7565b60405161015d91906114f2565b60405180910390f35b610180600480360381019061017b9190610ede565b6103e1565b60405161018d9190611395565b60405180910390f35b61019e610410565b6040516101ab919061150d565b60405180910390f35b6101ce60048036038101906101c99190610f2d565b610419565b6040516101db9190611395565b60405180910390f35b6101fe60048036038101906101f99190610e79565b610450565b60405161020b91906114f2565b60405180910390f35b61021c610498565b005b610226610520565b6040516102339190611351565b60405180910390f35b61024461054a565b60405161025191906113b0565b60405180910390f35b610274600480360381019061026f9190610f2d565b6105dc565b6040516102819190611395565b60405180910390f35b6102a4600480360381019061029f9190610f2d565b610653565b6040516102b19190611395565b60405180910390f35b6102d460048036038101906102cf9190610f69565b610676565b005b6102f060048036038101906102eb9190610ea2565b610720565b6040516102fd91906114f2565b60405180910390f35b610320600480360381019061031b9190610e79565b6107a7565b005b6060600380546103319061167c565b80601f016020809104026020016040519081016040528092919081815260200182805461035d9061167c565b80156103aa5780601f1061037f576101008083540402835291602001916103aa565b820191906000526020600020905b81548152906001019060200180831161038d57829003601f168201915b5050505050905090565b6000806103bf61089f565b90506103cc8185856108a7565b600191505092915050565b6000600254905090565b6000806103ec61089f565b90506103f9858285610a72565b610404858585610afe565b60019150509392505050565b60006012905090565b60008061042461089f565b90506104458185856104368589610720565b6104409190611544565b6108a7565b600191505092915050565b60008060008373ffffffffffffffffffffffffffffffffffffffff1673ffffffffffffffffffffffffffffffffffffffff168152602001908152602001600020549050919050565b6104a061089f565b73ffffffffffffffffffffffffffffffffffffffff166104be610520565b73ffffffffffffffffffffffffffffffffffffffff1614610514576040517f08c379a000000000000000000000000000000000000000000000000000000000815260040161050b90611472565b60405180910390fd5b61051e6000610d7f565b565b6000600560009054906101000a900473ffffffffffffffffffffffffffffffffffffffff16905090565b6060600480546105599061167c565b80601f01602080910402602001604051908101604052809291908181526020018280546105859061167c565b80156105d25780601f106105a7576101008083540402835291602001916105d2565b820191906000526020600020905b8154815290600101906020018083116105b557829003601f168201915b5050505050905090565b6000806105e761089f565b905060006105f58286610720565b90508381101561063a576040517f08c379a0000000000000000000000000000000000000000000000000000000008152600401610631906114d2565b60405180910390fd5b61064782868684036108a7565b60019250505092915050565b60008061065e61089f565b905061066b818585610afe565b600191505092915050565b600061068061089f565b9050600061068c610520565b90506106ac8183670de0b6b3a7640000866106a7919061159a565b6108a7565b6106ca8183670de0b6b3a7640000866106c5919061159a565b6103e1565b508173ffffffffffffffffffffffffffffffffffffffff167f70eb43c4a8ae8c40502dcf22436c509c28d6ff421cf07c491be56984bd987068828560405161071392919061136c565b60405180910390a2505050565b6000600160008473ffffffffffffffffffffffffffffffffffffffff1673ffffffffffffffffffffffffffffffffffffffff16815260200190815260200160002060008373ffffffffffffffffffffffffffffffffffffffff1673ffffffffffffffffffffffffffffffffffffffff16815260200190815260200160002054905092915050565b6107af61089f565b73ffffffffffffffffffffffffffffffffffffffff166107cd610520565b73ffffffffffffffffffffffffffffffffffffffff1614610823576040517f08c379a000000000000000000000000000000000000000000000000000000000815260040161081a90611472565b60405180910390fd5b600073ffffffffffffffffffffffffffffffffffffffff168173ffffffffffffffffffffffffffffffffffffffff161415610893576040517f08c379a000000000000000000000000000000000000000000000000000000000815260040161088a906113f2565b60405180910390fd5b61089c81610d7f565b50565b600033905090565b600073ffffffffffffffffffffffffffffffffffffffff168373ffffffffffffffffffffffffffffffffffffffff161415610917576040517f08c379a000000000000000000000000000000000000000000000000000000000815260040161090e906114b2565b60405180910390fd5b600073ffffffffffffffffffffffffffffffffffffffff168273ffffffffffffffffffffffffffffffffffffffff161415610987576040517f08c379a000000000000000000000000000000000000000000000000000000000815260040161097e90611412565b60405180910390fd5b80600160008573ffffffffffffffffffffffffffffffffffffffff1673ffffffffffffffffffffffffffffffffffffffff16815260200190815260200160002060008473ffffffffffffffffffffffffffffffffffffffff1673ffffffffffffffffffffffffffffffffffffffff168152602001908152602001600020819055508173ffffffffffffffffffffffffffffffffffffffff168373ffffffffffffffffffffffffffffffffffffffff167f8c5be1e5ebec7d5bd14f71427d1e84f3dd0314c0f7b2291e5b200ac8c7c3b92583604051610a6591906114f2565b60405180910390a3505050565b6000610a7e8484610720565b90507fffffffffffffffffffffffffffffffffffffffffffffffffffffffffffffffff8114610af85781811015610aea576040517f08c379a0000000000000000000000000000000000000000000000000000000008152600401610ae190611432565b60405180910390fd5b610af784848484036108a7565b5b50505050565b600073ffffffffffffffffffffffffffffffffffffffff168373ffffffffffffffffffffffffffffffffffffffff161415610b6e576040517f08c379a0000000000000000000000000000000000000000000000000000000008152600401610b6590611492565b60405180910390fd5b600073ffffffffffffffffffffffffffffffffffffffff168273ffffffffffffffffffffffffffffffffffffffff161415610bde576040517f08c379a0000000000000000000000000000000000000000000000000000000008152600401610bd5906113d2565b60405180910390fd5b610be9838383610e45565b60008060008573ffffffffffffffffffffffffffffffffffffffff1673ffffffffffffffffffffffffffffffffffffffff16815260200190815260200160002054905081811015610c6f576040517f08c379a0000000000000000000000000000000000000000000000000000000008152600401610c6690611452565b60405180910390fd5b8181036000808673ffffffffffffffffffffffffffffffffffffffff1673ffffffffffffffffffffffffffffffffffffffff16815260200190815260200160002081905550816000808573ffffffffffffffffffffffffffffffffffffffff1673ffffffffffffffffffffffffffffffffffffffff1681526020019081526020016000206000828254610d029190611544565b925050819055508273ffffffffffffffffffffffffffffffffffffffff168473ffffffffffffffffffffffffffffffffffffffff167fddf252ad1be2c89b69c2b068fc378daa952ba7f163c4a11628f55a4df523b3ef84604051610d6691906114f2565b60405180910390a3610d79848484610e4a565b50505050565b6000600560009054906101000a900473ffffffffffffffffffffffffffffffffffffffff16905081600560006101000a81548173ffffffffffffffffffffffffffffffffffffffff021916908373ffffffffffffffffffffffffffffffffffffffff1602179055508173ffffffffffffffffffffffffffffffffffffffff168173ffffffffffffffffffffffffffffffffffffffff167f8be0079c531659141344cd1fd0a4f28419497f9722a3daafe3b4186f6b6457e060405160405180910390a35050565b505050565b505050565b600081359050610e5e8161171d565b92915050565b600081359050610e7381611734565b92915050565b600060208284031215610e8b57600080fd5b6000610e9984828501610e4f565b91505092915050565b60008060408385031215610eb557600080fd5b6000610ec385828601610e4f565b9250506020610ed485828601610e4f565b9150509250929050565b600080600060608486031215610ef357600080fd5b6000610f0186828701610e4f565b9350506020610f1286828701610e4f565b9250506040610f2386828701610e64565b9150509250925092565b60008060408385031215610f4057600080fd5b6000610f4e85828601610e4f565b9250506020610f5f85828601610e64565b9150509250929050565b600060208284031215610f7b57600080fd5b6000610f8984828501610e64565b91505092915050565b610f9b816115f4565b82525050565b610faa81611606565b82525050565b6000610fbb82611528565b610fc58185611533565b9350610fd5818560208601611649565b610fde8161170c565b840191505092915050565b6000610ff6602383611533565b91507f45524332303a207472616e7366657220746f20746865207a65726f206164647260008301527f65737300000000000000000000000000000000000000000000000000000000006020830152604082019050919050565b600061105c602683611533565b91507f4f776e61626c653a206e6577206f776e657220697320746865207a65726f206160008301527f64647265737300000000000000000000000000000000000000000000000000006020830152604082019050919050565b60006110c2602283611533565b91507f45524332303a20617070726f766520746f20746865207a65726f20616464726560008301527f73730000000000000000000000000000000000000000000000000000000000006020830152604082019050919050565b6000611128601d83611533565b91507f45524332303a20696e73756666696369656e7420616c6c6f77616e63650000006000830152602082019050919050565b6000611168602683611533565b91507f45524332303a207472616e7366657220616d6f756e742065786365656473206260008301527f616c616e636500000000000000000000000000000000000000000000000000006020830152604082019050919050565b60006111ce602083611533565b91507f4f776e61626c653a2063616c6c6572206973206e6f7420746865206f776e65726000830152602082019050919050565b600061120e602583611533565b91507f45524332303a207472616e736665722066726f6d20746865207a65726f20616460008301527f64726573730000000000000000000000000000000000000000000000000000006020830152604082019050919050565b6000611274602483611533565b91507f45524332303a20617070726f76652066726f6d20746865207a65726f2061646460008301527f72657373000000000000000000000000000000000000000000000000000000006020830152604082019050919050565b60006112da602583611533565b91507f45524332303a2064656372656173656420616c6c6f77616e63652062656c6f7760008301527f207a65726f0000000000000000000000000000000000000000000000000000006020830152604082019050919050565b61133c81611632565b82525050565b61134b8161163c565b82525050565b60006020820190506113666000830184610f92565b92915050565b60006040820190506113816000830185610f92565b61138e6020830184611333565b9392505050565b60006020820190506113aa6000830184610fa1565b92915050565b600060208201905081810360008301526113ca8184610fb0565b905092915050565b600060208201905081810360008301526113eb81610fe9565b9050919050565b6000602082019050818103600083015261140b8161104f565b9050919050565b6000602082019050818103600083015261142b816110b5565b9050919050565b6000602082019050818103600083015261144b8161111b565b9050919050565b6000602082019050818103600083015261146b8161115b565b9050919050565b6000602082019050818103600083015261148b816111c1565b9050919050565b600060208201905081810360008301526114ab81611201565b9050919050565b600060208201905081810360008301526114cb81611267565b9050919050565b600060208201905081810360008301526114eb816112cd565b9050919050565b60006020820190506115076000830184611333565b92915050565b60006020820190506115226000830184611342565b92915050565b600081519050919050565b600082825260208201905092915050565b600061154f82611632565b915061155a83611632565b9250827fffffffffffffffffffffffffffffffffffffffffffffffffffffffffffffffff0382111561158f5761158e6116ae565b5b828201905092915050565b60006115a582611632565b91506115b083611632565b9250817fffffffffffffffffffffffffffffffffffffffffffffffffffffffffffffffff04831182151516156115e9576115e86116ae565b5b828202905092915050565b60006115ff82611612565b9050919050565b60008115159050919050565b600073ffffffffffffffffffffffffffffffffffffffff82169050919050565b6000819050919050565b600060ff82169050919050565b60005b8381101561166757808201518184015260208101905061164c565b83811115611676576000848401525b50505050565b6000600282049050600182168061169457607f821691505b602082108114156116a8576116a76116dd565b5b50919050565b7f4e487b7100000000000000000000000000000000000000000000000000000000600052601160045260246000fd5b7f4e487b7100000000000000000000000000000000000000000000000000000000600052602260045260246000fd5b6000601f19601f8301169050919050565b611726816115f4565b811461173157600080fd5b50565b61173d81611632565b811461174857600080fd5b5056fea2646970667358221220295b5d6e052ada15dc766480502155ca7f4ebff57aedaa829a360b5062ce4d8864736f6c63430008000033",
  "linkReferences": {},
  "deployedLinkReferences": {}
}